{
  "transactions": [
    {
      "hash": "0xf2f68bd275e8624282b77c0ff701cb86e67ab639fe64c7865365c082d583f44e",
      "transactionType": "CALL",
      "contractName": null,
      "contractAddress": "0xce0042b868300000d44a59004da54a005ffdcf9f",
      "function": "deploy(bytes,bytes32)",
      "arguments": [
        "0x60c03461009157601f6103c138819003918201601f19168301916001600160401b038311848410176100955780849260209460405283398101031261009157516001600160a01b038116808203610091573060a052156100825760805260405161031790816100aa823960805181818160a50152610202015260a0518160e60152f35b631df13ab560e01b5f5260045ffd5b5f80fd5b634e487b7160e01b5f52604160045260245ffdfe60806040526004361015610011575f80fd5b5f3560e01c806332fe7b261461009357634c4e814c1461002f575f80fd5b60c036600319011261008f5760a4356024356084356064356044356001600160401b03851161008f573660238601121561008f578460040135946001600160401b03861161008f57366024878301011161008f57602401936004356100d7565b5f80fd5b3461008f575f36600319011261008f577f00000000000000000000000000000000000000000000000000000000000000006001600160a01b03166080908152602090f35b95935050506001600160a01b037f000000000000000000000000000000000000000000000000000000000000000016301490506101925781019060408183031261008f5780356001600160401b03811161008f5781019180601f8401121561008f57823590610145826101db565b9061015360405192836101b5565b8282526020838601011161008f576020610189935f8285610183968260019a0183880137850101520135906101f6565b9261029c565b55602081519101f35b6327844c6960e11b5f5260045ffd5b634e487b7160e01b5f52604160045260245ffd5b90601f801991011681019081106001600160401b038211176101d657604052565b6101a1565b6001600160401b0381116101d657601f01601f191660200190565b80515f928392602001907f00000000000000000000000000000000000000000000000000000000000000005af13d15610294573d90610234826101db565b9161024260405193846101b5565b82523d5f602084013e5b156102545790565b6044602091604051928391630ef439b960e01b83528160048401528051918291826024860152018484015e5f828201840152601f01601f19168101030190fd5b60609061024c565b60405160208101917f280d4be14fa09378750d86c933a0bbaa72f861b3ecaac50fb28add64cd1a66e283526040820152604081526102db6060826101b5565b5190209056fea2646970667358221220e75a86e7a8ad5827c02a7999b8130ee0f6ec73a8aa0dd954162a17fbe342651264736f6c634300081e0033000000000000000000000000977c0d1bfb9071cb63c9c1ad92d916589ee38928",
        "0x0000000000000000000000000000000000000000000000000000000000000000"
      ],
      "transaction": {
        "from": "0xab41109fee8e1034c0f6a2c539ae1c869651f66b",
        "to": "0xce0042b868300000d44a59004da54a005ffdcf9f",
        "gas": "0x51488",
        "value": "0x0",
        "input": "0x4af63f020000000000000000000000000000000000000000000000000000000000000040000000000000000000000000000000000000000000000000000000000000000000000000000000000000000000000000000000000000000000000000000003e160c03461009157601f6103c138819003918201601f19168301916001600160401b038311848410176100955780849260209460405283398101031261009157516001600160a01b038116808203610091573060a052156100825760805260405161031790816100aa823960805181818160a50152610202015260a0518160e60152f35b631df13ab560e01b5f5260045ffd5b5f80fd5b634e487b7160e01b5f52604160045260245ffdfe60806040526004361015610011575f80fd5b5f3560e01c806332fe7b261461009357634c4e814c1461002f575f80fd5b60c036600319011261008f5760a4356024356084356064356044356001600160401b03851161008f573660238601121561008f578460040135946001600160401b03861161008f57366024878301011161008f57602401936004356100d7565b5f80fd5b3461008f575f36600319011261008f577f00000000000000000000000000000000000000000000000000000000000000006001600160a01b03166080908152602090f35b95935050506001600160a01b037f000000000000000000000000000000000000000000000000000000000000000016301490506101925781019060408183031261008f5780356001600160401b03811161008f5781019180601f8401121561008f57823590610145826101db565b9061015360405192836101b5565b8282526020838601011161008f576020610189935f8285610183968260019a0183880137850101520135906101f6565b9261029c565b55602081519101f35b6327844c6960e11b5f5260045ffd5b634e487b7160e01b5f52604160045260245ffd5b90601f801991011681019081106001600160401b038211176101d657604052565b6101a1565b6001600160401b0381116101d657601f01601f191660200190565b80515f928392602001907f00000000000000000000000000000000000000000000000000000000000000005af13d15610294573d90610234826101db565b9161024260405193846101b5565b82523d5f602084013e5b156102545790565b6044602091604051928391630ef439b960e01b83528160048401528051918291826024860152018484015e5f828201840152601f01601f19168101030190fd5b60609061024c565b60405160208101917f280d4be14fa09378750d86c933a0bbaa72f861b3ecaac50fb28add64cd1a66e283526040820152604081526102db6060826101b5565b5190209056fea2646970667358221220e75a86e7a8ad5827c02a7999b8130ee0f6ec73a8aa0dd954162a17fbe342651264736f6c634300081e0033000000000000000000000000977c0d1bfb9071cb63c9c1ad92d916589ee3892800000000000000000000000000000000000000000000000000000000000000",
        "nonce": "0x16",
        "chainId": "0x89"
      },
      "additionalContracts": [
        {
          "transactionType": "CREATE2",
          "address": "0xc0866a65988cbadd1bdff27686aa3831cdd6a717",
          "initCode": "0x60c03461009157601f6103c138819003918201601f19168301916001600160401b038311848410176100955780849260209460405283398101031261009157516001600160a01b038116808203610091573060a052156100825760805260405161031790816100aa823960805181818160a50152610202015260a0518160e60152f35b631df13ab560e01b5f5260045ffd5b5f80fd5b634e487b7160e01b5f52604160045260245ffdfe60806040526004361015610011575f80fd5b5f3560e01c806332fe7b261461009357634c4e814c1461002f575f80fd5b60c036600319011261008f5760a4356024356084356064356044356001600160401b03851161008f573660238601121561008f578460040135946001600160401b03861161008f57366024878301011161008f57602401936004356100d7565b5f80fd5b3461008f575f36600319011261008f577f00000000000000000000000000000000000000000000000000000000000000006001600160a01b03166080908152602090f35b95935050506001600160a01b037f000000000000000000000000000000000000000000000000000000000000000016301490506101925781019060408183031261008f5780356001600160401b03811161008f5781019180601f8401121561008f57823590610145826101db565b9061015360405192836101b5565b8282526020838601011161008f576020610189935f8285610183968260019a0183880137850101520135906101f6565b9261029c565b55602081519101f35b6327844c6960e11b5f5260045ffd5b634e487b7160e01b5f52604160045260245ffd5b90601f801991011681019081106001600160401b038211176101d657604052565b6101a1565b6001600160401b0381116101d657601f01601f191660200190565b80515f928392602001907f00000000000000000000000000000000000000000000000000000000000000005af13d15610294573d90610234826101db565b9161024260405193846101b5565b82523d5f602084013e5b156102545790565b6044602091604051928391630ef439b960e01b83528160048401528051918291826024860152018484015e5f828201840152601f01601f19168101030190fd5b60609061024c565b60405160208101917f280d4be14fa09378750d86c933a0bbaa72f861b3ecaac50fb28add64cd1a66e283526040820152604081526102db6060826101b5565b5190209056fea2646970667358221220e75a86e7a8ad5827c02a7999b8130ee0f6ec73a8aa0dd954162a17fbe342651264736f6c634300081e0033000000000000000000000000977c0d1bfb9071cb63c9c1ad92d916589ee38928"
        }
      ],
      "isFixedGasLimit": false
    }
  ],
  "receipts": [
    {
      "status": "0x1",
      "cumulativeGasUsed": "0x80d3b6",
      "logs": [
        {
          "address": "0x0000000000000000000000000000000000001010",
          "topics": [
            "0x4dfe1bbbcf077ddc3e01291eea2d5c70c2b422b415d95645b9adcfd678cb1d63",
            "0x0000000000000000000000000000000000000000000000000000000000001010",
            "0x000000000000000000000000ab41109fee8e1034c0f6a2c539ae1c869651f66b",
            "0x00000000000000000000000067b94473d81d0cd00849d563c94d0432ac988b49"
          ],
          "data": "0x00000000000000000000000000000000000000000000000000224489381c197e0000000000000000000000000000000000000000000000001dc65b28a1b812170000000000000000000000000000000000000000000007dbce4bdc1cb4e6dc4c0000000000000000000000000000000000000000000000001da4169f699bf8990000000000000000000000000000000000000000000007dbce6e20a5ed02f5ca",
          "blockHash": "0x5f24250f2be115c470db766b52d07d2794988ed070635dc4c0a8a64f884fc147",
          "blockNumber": "0x49bf2d6",
          "transactionHash": "0xf2f68bd275e8624282b77c0ff701cb86e67ab639fe64c7865365c082d583f44e",
          "transactionIndex": "0x32",
          "logIndex": "0x16b",
          "removed": false
        }
      ],
      "logsBloom": "0x00000000000000000000000000000000000000000000000000000000000000000000000000000000000000000000000000008000000000000000000000000000000000000000000000000000000000800000000080000000000100000000000000000000000000000000000000000000000000000000000080000000000000000000000000000000000000000000000000000000000000000000000000000000200000000000000000000000000000000000000000000000000000000000004000800000000000000001000000008000000000000000000000100001000000000000020000000000000000000000000000000000000000000000000000100400",
      "type": "0x2",
      "transactionHash": "0xf2f68bd275e8624282b77c0ff701cb86e67ab639fe64c7865365c082d583f44e",
      "transactionIndex": "0x32",
      "blockHash": "0x5f24250f2be115c470db766b52d07d2794988ed070635dc4c0a8a64f884fc147",
      "blockNumber": "0x49bf2d6",
      "gasUsed": "0x37941",
      "effectiveGasPrice": "0x23db909622",
      "from": "0xab41109fee8e1034c0f6a2c539ae1c869651f66b",
      "to": "0xce0042b868300000d44a59004da54a005ffdcf9f",
      "contractAddress": null
    }
  ],
  "libraries": [],
  "pending": [],
  "returns": {},
  "timestamp": 1759751250,
  "chain": 137,
  "commit": "103eff6"
}