{
  "transactions": [
    {
      "hash": "0x604bacd8dab3e0bfbb3332f1ebfbc49072bb3a3d5837b13c4456df400c1c2fc5",
      "transactionType": "CALL",
      "contractName": null,
      "contractAddress": "0xce0042b868300000d44a59004da54a005ffdcf9f",
      "function": "deploy(bytes,bytes32)",
      "arguments": [
        "0x61016060405234610095576105f56020813803918261001d816100ad565b93849283398101031261009557516001600160a01b038116810361009557610044906100d7565b60405161043a90816101bb8239608051816101c6015260a05181610138015260c05181610105015260e0518161028f015261010051815050610120518150506101405181818160ba01526103540152f35b5f80fd5b634e487b7160e01b5f52604160045260245ffd5b6040519190601f01601f191682016001600160401b038111838210176100d257604052565b610099565b306080526100e3610162565b6001600160a01b03811615610153576100fb81610178565b801561013d57600160e0526003610100526005610120525b60c05260a0526001600160a01b0381161561012e5761014052565b631df13ab560e01b5f5260045ffd5b600260e052600461010052600661012052610113565b632aea588760e01b5f5260045ffd5b696002601e613d5c3d52f35f52600a60165ff090565b5f80808093600a5a04fa3d156101b7573d6001600160401b0381116100d2576101aa601f8201601f19166020016100ad565b9081525f60203d92013e90565b9056fe60806040526004361015610011575f80fd5b5f3560e01c806332fe7b26146100a85780634c4e814c1461003f57637423eb3c1461003a575f80fd5b6100ec565b346100a45760c03660031901126100a45760a4356024356084356064356044356001600160401b0385116100a457366023860112156100a4578460040135946001600160401b0386116100a45736602487830101116100a457602401936004356101b7565b5f80fd5b346100a4575f3660031901126100a4577f00000000000000000000000000000000000000000000000000000000000000006001600160a01b03166080908152602090f35b346100a4575f3660031901126100a4573233036101a8577f0000000000000000000000000000000000000000000000000000000000000000801561019d575b61018e576101695f8080807f0000000000000000000000000000000000000000000000000000000000000000600a5a04fa610164610323565b501590565b61017f5761017d600160ff195f5416175f55565b005b6370a4078f60e01b5f5260045ffd5b630f45b98b60e41b5f5260045ffd5b5060ff5f541661012b565b63096650c560e21b5f5260045ffd5b95935050506001600160a01b037f000000000000000000000000000000000000000000000000000000000000000016301490506102bb578101906040818303126100a45780356001600160401b0381116100a45781019180601f840112156100a45782359061022d61022883610308565b6102de565b90828252602083860101116100a457602061028d935f828561025f96826102b39a018388013785010152013590610348565b927f280d4be14fa09378750d86c933a0bbaa72f861b3ecaac50fb28add64cd1a66e25f5260205260405f2090565b7f00000000000000000000000000000000000000000000000000000000000000006103c6565b602081519101f35b6327844c6960e11b5f5260045ffd5b634e487b7160e01b5f52604160045260245ffd5b6040519190601f01601f191682016001600160401b0381118382101761030357604052565b6102ca565b6001600160401b03811161030357601f01601f191660200190565b3d15610343573d9061033761022883610308565b9182523d5f602084013e565b606090565b80515f928392602001907f00000000000000000000000000000000000000000000000000000000000000005af161037d610323565b90156103865790565b6044602091604051928391630ef439b960e01b83528160048401528051918291826024860152018484015e5f828201840152601f01601f19168101030190fd5b806002146103ef576001146103e957634e487b7160e01b5f52605160045260245ffd5b6001905d565b5060019060ff5f54165f14610401575d565b5556fea26469706673582212205cdd1bb8c8eab552311de462420c4d55f6cfda10a4941fea6dc02885bb87dc3c64736f6c634300081e00330000000000000000000000008035799918ba024f0adb1473f29e5cba75f5441d",
        "0x0000000000000000000000000000000000000000000000000000000000000000"
      ],
      "transaction": {
        "from": "0xab41109fee8e1034c0f6a2c539ae1c869651f66b",
        "to": "0xce0042b868300000d44a59004da54a005ffdcf9f",
        "gas": "0x6e311",
        "value": "0x0",
        "input": "0x4af63f0200000000000000000000000000000000000000000000000000000000000000400000000000000000000000000000000000000000000000000000000000000000000000000000000000000000000000000000000000000000000000000000061561016060405234610095576105f56020813803918261001d816100ad565b93849283398101031261009557516001600160a01b038116810361009557610044906100d7565b60405161043a90816101bb8239608051816101c6015260a05181610138015260c05181610105015260e0518161028f015261010051815050610120518150506101405181818160ba01526103540152f35b5f80fd5b634e487b7160e01b5f52604160045260245ffd5b6040519190601f01601f191682016001600160401b038111838210176100d257604052565b610099565b306080526100e3610162565b6001600160a01b03811615610153576100fb81610178565b801561013d57600160e0526003610100526005610120525b60c05260a0526001600160a01b0381161561012e5761014052565b631df13ab560e01b5f5260045ffd5b600260e052600461010052600661012052610113565b632aea588760e01b5f5260045ffd5b696002601e613d5c3d52f35f52600a60165ff090565b5f80808093600a5a04fa3d156101b7573d6001600160401b0381116100d2576101aa601f8201601f19166020016100ad565b9081525f60203d92013e90565b9056fe60806040526004361015610011575f80fd5b5f3560e01c806332fe7b26146100a85780634c4e814c1461003f57637423eb3c1461003a575f80fd5b6100ec565b346100a45760c03660031901126100a45760a4356024356084356064356044356001600160401b0385116100a457366023860112156100a4578460040135946001600160401b0386116100a45736602487830101116100a457602401936004356101b7565b5f80fd5b346100a4575f3660031901126100a4577f00000000000000000000000000000000000000000000000000000000000000006001600160a01b03166080908152602090f35b346100a4575f3660031901126100a4573233036101a8577f0000000000000000000000000000000000000000000000000000000000000000801561019d575b61018e576101695f8080807f0000000000000000000000000000000000000000000000000000000000000000600a5a04fa610164610323565b501590565b61017f5761017d600160ff195f5416175f55565b005b6370a4078f60e01b5f5260045ffd5b630f45b98b60e41b5f5260045ffd5b5060ff5f541661012b565b63096650c560e21b5f5260045ffd5b95935050506001600160a01b037f000000000000000000000000000000000000000000000000000000000000000016301490506102bb578101906040818303126100a45780356001600160401b0381116100a45781019180601f840112156100a45782359061022d61022883610308565b6102de565b90828252602083860101116100a457602061028d935f828561025f96826102b39a018388013785010152013590610348565b927f280d4be14fa09378750d86c933a0bbaa72f861b3ecaac50fb28add64cd1a66e25f5260205260405f2090565b7f00000000000000000000000000000000000000000000000000000000000000006103c6565b602081519101f35b6327844c6960e11b5f5260045ffd5b634e487b7160e01b5f52604160045260245ffd5b6040519190601f01601f191682016001600160401b0381118382101761030357604052565b6102ca565b6001600160401b03811161030357601f01601f191660200190565b3d15610343573d9061033761022883610308565b9182523d5f602084013e565b606090565b80515f928392602001907f00000000000000000000000000000000000000000000000000000000000000005af161037d610323565b90156103865790565b6044602091604051928391630ef439b960e01b83528160048401528051918291826024860152018484015e5f828201840152601f01601f19168101030190fd5b806002146103ef576001146103e957634e487b7160e01b5f52605160045260245ffd5b6001905d565b5060019060ff5f54165f14610401575d565b5556fea26469706673582212205cdd1bb8c8eab552311de462420c4d55f6cfda10a4941fea6dc02885bb87dc3c64736f6c634300081e00330000000000000000000000008035799918ba024f0adb1473f29e5cba75f5441d0000000000000000000000",
        "nonce": "0x1b",
        "chainId": "0x89"
      },
      "additionalContracts": [
        {
          "transactionType": "CREATE2",
          "address": "0xd5e15083c1dedc10301bba9264c347df48faa336",
          "initCode": "0x61016060405234610095576105f56020813803918261001d816100ad565b93849283398101031261009557516001600160a01b038116810361009557610044906100d7565b60405161043a90816101bb8239608051816101c6015260a05181610138015260c05181610105015260e0518161028f015261010051815050610120518150506101405181818160ba01526103540152f35b5f80fd5b634e487b7160e01b5f52604160045260245ffd5b6040519190601f01601f191682016001600160401b038111838210176100d257604052565b610099565b306080526100e3610162565b6001600160a01b03811615610153576100fb81610178565b801561013d57600160e0526003610100526005610120525b60c05260a0526001600160a01b0381161561012e5761014052565b631df13ab560e01b5f5260045ffd5b600260e052600461010052600661012052610113565b632aea588760e01b5f5260045ffd5b696002601e613d5c3d52f35f52600a60165ff090565b5f80808093600a5a04fa3d156101b7573d6001600160401b0381116100d2576101aa601f8201601f19166020016100ad565b9081525f60203d92013e90565b9056fe60806040526004361015610011575f80fd5b5f3560e01c806332fe7b26146100a85780634c4e814c1461003f57637423eb3c1461003a575f80fd5b6100ec565b346100a45760c03660031901126100a45760a4356024356084356064356044356001600160401b0385116100a457366023860112156100a4578460040135946001600160401b0386116100a45736602487830101116100a457602401936004356101b7565b5f80fd5b346100a4575f3660031901126100a4577f00000000000000000000000000000000000000000000000000000000000000006001600160a01b03166080908152602090f35b346100a4575f3660031901126100a4573233036101a8577f0000000000000000000000000000000000000000000000000000000000000000801561019d575b61018e576101695f8080807f0000000000000000000000000000000000000000000000000000000000000000600a5a04fa610164610323565b501590565b61017f5761017d600160ff195f5416175f55565b005b6370a4078f60e01b5f5260045ffd5b630f45b98b60e41b5f5260045ffd5b5060ff5f541661012b565b63096650c560e21b5f5260045ffd5b95935050506001600160a01b037f000000000000000000000000000000000000000000000000000000000000000016301490506102bb578101906040818303126100a45780356001600160401b0381116100a45781019180601f840112156100a45782359061022d61022883610308565b6102de565b90828252602083860101116100a457602061028d935f828561025f96826102b39a018388013785010152013590610348565b927f280d4be14fa09378750d86c933a0bbaa72f861b3ecaac50fb28add64cd1a66e25f5260205260405f2090565b7f00000000000000000000000000000000000000000000000000000000000000006103c6565b602081519101f35b6327844c6960e11b5f5260045ffd5b634e487b7160e01b5f52604160045260245ffd5b6040519190601f01601f191682016001600160401b0381118382101761030357604052565b6102ca565b6001600160401b03811161030357601f01601f191660200190565b3d15610343573d9061033761022883610308565b9182523d5f602084013e565b606090565b80515f928392602001907f00000000000000000000000000000000000000000000000000000000000000005af161037d610323565b90156103865790565b6044602091604051928391630ef439b960e01b83528160048401528051918291826024860152018484015e5f828201840152601f01601f19168101030190fd5b806002146103ef576001146103e957634e487b7160e01b5f52605160045260245ffd5b6001905d565b5060019060ff5f54165f14610401575d565b5556fea26469706673582212205cdd1bb8c8eab552311de462420c4d55f6cfda10a4941fea6dc02885bb87dc3c64736f6c634300081e00330000000000000000000000008035799918ba024f0adb1473f29e5cba75f5441d"
        },
        {
          "transactionType": "CREATE",
          "address": "0x0b8b1c9dd636050609f0570831b621f1cd8ef760",
          "initCode": "0x6002601e613d5c3d52f3"
        }
      ],
      "isFixedGasLimit": false
    }
  ],
  "receipts": [
    {
      "status": "0x1",
      "cumulativeGasUsed": "0x159d588",
      "logs": [
        {
          "address": "0x0000000000000000000000000000000000001010",
          "topics": [
            "0x4dfe1bbbcf077ddc3e01291eea2d5c70c2b422b415d95645b9adcfd678cb1d63",
            "0x0000000000000000000000000000000000000000000000000000000000001010",
            "0x000000000000000000000000ab41109fee8e1034c0f6a2c539ae1c869651f66b",
            "0x0000000000000000000000007ee41d8a25641000661b1ef5e6ae8a00400466b0"
          ],
          "data": "0x000000000000000000000000000000000000000000000000002c35c1fbf582400000000000000000000000000000000000000000000000001a0c42224c896cf0000000000000000000000000000000000000000000000a366c7155ee32500d0800000000000000000000000000000000000000000000000019e00c605093eab0000000000000000000000000000000000000000000000a366c9d8bb02e458f48",
          "blockHash": "0x765172217597f70930b8013828ac1adea0fa00a18effcede5daaad650993822e",
          "blockNumber": "0x49dd851",
          "transactionHash": "0x604bacd8dab3e0bfbb3332f1ebfbc49072bb3a3d5837b13c4456df400c1c2fc5",
          "transactionIndex": "0x42",
          "logIndex": "0x3cf",
          "removed": false
        }
      ],
      "logsBloom": "0x00000000000000000000000000000000000000000000000000000000000000000000000000000000000000000000000000008000000000000000000000000000000000000000000000000000000000800000000080000000000100000000000000000000000000000000000000000000000000000000000080000000000000000000000000000000020000000400000000000000000000000000000000000000200000000000000000000000000000000000000000000000000000000000004000000000000000000001000000000000000000400000000000100001000000000000000000000000000000000000000000000000000000000000000000100400",
      "type": "0x2",
      "transactionHash": "0x604bacd8dab3e0bfbb3332f1ebfbc49072bb3a3d5837b13c4456df400c1c2fc5",
      "transactionIndex": "0x42",
      "blockHash": "0x765172217597f70930b8013828ac1adea0fa00a18effcede5daaad650993822e",
      "blockNumber": "0x49dd851",
      "gasUsed": "0x4fc6f",
      "effectiveGasPrice": "0x1051fced35",
      "from": "0xab41109fee8e1034c0f6a2c539ae1c869651f66b",
      "to": "0xce0042b868300000d44a59004da54a005ffdcf9f",
      "contractAddress": null
    }
  ],
  "libraries": [],
  "pending": [],
  "returns": {},
  "timestamp": 1760011332563,
  "chain": 137,
  "commit": "7e16857"
}