{
  "transactions": [
    {
      "hash": "0x2c212d778652c898704ac32b1a222a21fa21717ade3b17a2f35361aa350bee04",
      "transactionType": "CALL",
      "contractName": null,
      "contractAddress": "0xce0042b868300000d44a59004da54a005ffdcf9f",
      "function": "deploy(bytes,bytes32)",
      "arguments": [
        "0x60c03461009157601f61038338819003918201601f19168301916001600160401b038311848410176100955780849260209460405283398101031261009157516001600160a01b038116808203610091573060a05215610082576080526040516102d990816100aa823960805181818160ad0152610136015260a0518160e90152f35b631df13ab560e01b5f5260045ffd5b5f80fd5b634e487b7160e01b5f52604160045260245ffdfe60806040526004361015610011575f80fd5b5f3560e01c80634c4e814c146100345763f887ea401461002f575f80fd5b610098565b60c03660031901126100945760a4356024356084356064356044356001600160401b0385116100945736602386011215610094578460040135946001600160401b03861161009457366024878301011161009457602401936004356100dc565b5f80fd5b34610094575f366003190112610094576040517f00000000000000000000000000000000000000000000000000000000000000006001600160a01b03168152602090f35b95919491935090915050307f00000000000000000000000000000000000000000000000000000000000000006001600160a01b0316146101e957600482106101d657815f92918392604051928392833781018381520390347f00000000000000000000000000000000000000000000000000000000000000005af1913d156101ce573d926001600160401b0384116101c95760405193610186601f8201601f19166020018661020c565b84523d5f602086013e5b156101aa576001916101a191610257565b55602081519101f35b604051630ef439b960e01b8152806101c5856004830161022d565b0390fd5b6101f8565b606092610190565b6312ba286f60e01b5f525f60045260245ffd5b6327844c6960e11b5f5260045ffd5b634e487b7160e01b5f52604160045260245ffd5b90601f801991011681019081106001600160401b038211176101c957604052565b602060409281835280519182918282860152018484015e5f828201840152601f01601f1916010190565b906040519060208201927f280d4be14fa09378750d86c933a0bbaa72f861b3ecaac50fb28add64cd1a66e28452604083015260608201526060815261029d60808261020c565b5190209056fea2646970667358221220f320428cb4e5de103b276e0e1a11bf4143684fb0bb54d1f121ce073fdf72ea4c64736f6c634300081e0033000000000000000000000000977c0d1bfb9071cb63c9c1ad92d916589ee38928",
        "0x0000000000000000000000000000000000000000000000000000000000000000"
      ],
      "transaction": {
        "from": "0xab41109fee8e1034c0f6a2c539ae1c869651f66b",
        "to": "0xce0042b868300000d44a59004da54a005ffdcf9f",
        "gas": "0x483f4",
        "value": "0x0",
        "input": "0x4af63f020000000000000000000000000000000000000000000000000000000000000040000000000000000000000000000000000000000000000000000000000000000000000000000000000000000000000000000000000000000000000000000003a360c03461009157601f61038338819003918201601f19168301916001600160401b038311848410176100955780849260209460405283398101031261009157516001600160a01b038116808203610091573060a05215610082576080526040516102d990816100aa823960805181818160ad0152610136015260a0518160e90152f35b631df13ab560e01b5f5260045ffd5b5f80fd5b634e487b7160e01b5f52604160045260245ffdfe60806040526004361015610011575f80fd5b5f3560e01c80634c4e814c146100345763f887ea401461002f575f80fd5b610098565b60c03660031901126100945760a4356024356084356064356044356001600160401b0385116100945736602386011215610094578460040135946001600160401b03861161009457366024878301011161009457602401936004356100dc565b5f80fd5b34610094575f366003190112610094576040517f00000000000000000000000000000000000000000000000000000000000000006001600160a01b03168152602090f35b95919491935090915050307f00000000000000000000000000000000000000000000000000000000000000006001600160a01b0316146101e957600482106101d657815f92918392604051928392833781018381520390347f00000000000000000000000000000000000000000000000000000000000000005af1913d156101ce573d926001600160401b0384116101c95760405193610186601f8201601f19166020018661020c565b84523d5f602086013e5b156101aa576001916101a191610257565b55602081519101f35b604051630ef439b960e01b8152806101c5856004830161022d565b0390fd5b6101f8565b606092610190565b6312ba286f60e01b5f525f60045260245ffd5b6327844c6960e11b5f5260045ffd5b634e487b7160e01b5f52604160045260245ffd5b90601f801991011681019081106001600160401b038211176101c957604052565b602060409281835280519182918282860152018484015e5f828201840152601f01601f1916010190565b906040519060208201927f280d4be14fa09378750d86c933a0bbaa72f861b3ecaac50fb28add64cd1a66e28452604083015260608201526060815261029d60808261020c565b5190209056fea2646970667358221220f320428cb4e5de103b276e0e1a11bf4143684fb0bb54d1f121ce073fdf72ea4c64736f6c634300081e0033000000000000000000000000977c0d1bfb9071cb63c9c1ad92d916589ee389280000000000000000000000000000000000000000000000000000000000",
        "nonce": "0x28",
        "chainId": "0x2105"
      },
      "additionalContracts": [
        {
          "transactionType": "CREATE2",
          "address": "0x381c11bc6080057fe6af341a458a8d99133b5e40",
          "initCode": "0x60c03461009157601f61038338819003918201601f19168301916001600160401b038311848410176100955780849260209460405283398101031261009157516001600160a01b038116808203610091573060a05215610082576080526040516102d990816100aa823960805181818160ad0152610136015260a0518160e90152f35b631df13ab560e01b5f5260045ffd5b5f80fd5b634e487b7160e01b5f52604160045260245ffdfe60806040526004361015610011575f80fd5b5f3560e01c80634c4e814c146100345763f887ea401461002f575f80fd5b610098565b60c03660031901126100945760a4356024356084356064356044356001600160401b0385116100945736602386011215610094578460040135946001600160401b03861161009457366024878301011161009457602401936004356100dc565b5f80fd5b34610094575f366003190112610094576040517f00000000000000000000000000000000000000000000000000000000000000006001600160a01b03168152602090f35b95919491935090915050307f00000000000000000000000000000000000000000000000000000000000000006001600160a01b0316146101e957600482106101d657815f92918392604051928392833781018381520390347f00000000000000000000000000000000000000000000000000000000000000005af1913d156101ce573d926001600160401b0384116101c95760405193610186601f8201601f19166020018661020c565b84523d5f602086013e5b156101aa576001916101a191610257565b55602081519101f35b604051630ef439b960e01b8152806101c5856004830161022d565b0390fd5b6101f8565b606092610190565b6312ba286f60e01b5f525f60045260245ffd5b6327844c6960e11b5f5260045ffd5b634e487b7160e01b5f52604160045260245ffd5b90601f801991011681019081106001600160401b038211176101c957604052565b602060409281835280519182918282860152018484015e5f828201840152601f01601f1916010190565b906040519060208201927f280d4be14fa09378750d86c933a0bbaa72f861b3ecaac50fb28add64cd1a66e28452604083015260608201526060815261029d60808261020c565b5190209056fea2646970667358221220f320428cb4e5de103b276e0e1a11bf4143684fb0bb54d1f121ce073fdf72ea4c64736f6c634300081e0033000000000000000000000000977c0d1bfb9071cb63c9c1ad92d916589ee38928"
        }
      ],
      "isFixedGasLimit": false
    }
  ],
  "receipts": [
    {
      "status": "0x1",
      "cumulativeGasUsed": "0xf21370",
      "logs": [],
      "logsBloom": "0x00000000000000000000000000000000000000000000000000000000000000000000000000000000000000000000000000000000000000000000000000000000000000000000000000000000000000000000000000000000000000000000000000000000000000000000000000000000000000000000000000000000000000000000000000000000000000000000000000000000000000000000000000000000000000000000000000000000000000000000000000000000000000000000000000000000000000000000000000000000000000000000000000000000000000000000000000000000000000000000000000000000000000000000000000000000",
      "type": "0x2",
      "transactionHash": "0x2c212d778652c898704ac32b1a222a21fa21717ade3b17a2f35361aa350bee04",
      "transactionIndex": "0x4d",
      "blockHash": "0x98be6ad97d08d74c7411801172282f290458b4018bad3d009eaf0f57375cebb2",
      "blockNumber": "0x22888cb",
      "gasUsed": "0x344e4",
      "effectiveGasPrice": "0x47934",
      "from": "0xab41109fee8e1034c0f6a2c539ae1c869651f66b",
      "to": "0xce0042b868300000d44a59004da54a005ffdcf9f",
      "contractAddress": null,
      "l1BaseFeeScalar": "0x8dd",
      "l1BlobBaseFee": "0x1",
      "l1BlobBaseFeeScalar": "0x101c12",
      "l1Fee": "0x16782e10b",
      "l1GasPrice": "0xded0f07",
      "l1GasUsed": "0x2c71"
    }
  ],
  "libraries": [],
  "pending": [],
  "returns": {},
  "timestamp": 1759211127,
  "chain": 8453,
  "commit": "a8283ce"
}