{
  "transactions": [
    {
      "hash": "0x7236f5e67166f748926e325daf9099bcb1979fa10984139bda2a391e33a6ca1c",
      "transactionType": "CALL",
      "contractName": null,
      "contractAddress": "0xce0042b868300000d44a59004da54a005ffdcf9f",
      "function": "deploy(bytes,bytes32)",
      "arguments": [
        "0x60c03461009157601f61040d38819003918201601f19168301916001600160401b038311848410176100955780849260209460405283398101031261009157516001600160a01b038116808203610091573060a052156100825760805260405161036390816100aa823960805181818160a5015261024e015260a0518160e60152f35b631df13ab560e01b5f5260045ffd5b5f80fd5b634e487b7160e01b5f52604160045260245ffdfe60806040526004361015610011575f80fd5b5f3560e01c806332fe7b261461009357634c4e814c1461002f575f80fd5b60c036600319011261008f5760a4356024356084356064356044356001600160401b03851161008f573660238601121561008f578460040135946001600160401b03861161008f57366024878301011161008f57602401936004356100d7565b5f80fd5b3461008f575f36600319011261008f577f00000000000000000000000000000000000000000000000000000000000000006001600160a01b03166080908152602090f35b95935050506001600160a01b037f000000000000000000000000000000000000000000000000000000000000000016301490506101de57600481106101cb57810160408282031261008f5781356001600160401b03811161008f5782019080601f8301121561008f5781359161014c83610227565b9161015a6040519384610201565b8383526020848301011161008f576001935f60208561018796828096018388013785010152013590610242565b917e79c93da2eeacd95680dbb2828e515dcb8f43209df2f6ed9bbf4840ffd2ac626101b1826102e8565b60408051938452602084018290529092a155602081519101f35b6312ba286f60e01b5f525f60045260245ffd5b6327844c6960e11b5f5260045ffd5b634e487b7160e01b5f52604160045260245ffd5b90601f801991011681019081106001600160401b0382111761022257604052565b6101ed565b6001600160401b03811161022257601f01601f191660200190565b80515f928392602001907f00000000000000000000000000000000000000000000000000000000000000005af13d156102e0573d9061028082610227565b9161028e6040519384610201565b82523d5f602084013e5b156102a05790565b6044602091604051928391630ef439b960e01b83528160048401528051918291826024860152018484015e5f828201840152601f01601f19168101030190fd5b606090610298565b60405160208101917f280d4be14fa09378750d86c933a0bbaa72f861b3ecaac50fb28add64cd1a66e28352604082015260408152610327606082610201565b5190209056fea2646970667358221220926642062546bd58784f8684af1780b6d574542c308eddf87e75f7bebdb32a4c64736f6c634300081e0033000000000000000000000000977c0d1bfb9071cb63c9c1ad92d916589ee38928",
        "0x0000000000000000000000000000000000000000000000000000000000000000"
      ],
      "transaction": {
        "from": "0xab41109fee8e1034c0f6a2c539ae1c869651f66b",
        "to": "0xce0042b868300000d44a59004da54a005ffdcf9f",
        "gas": "0x524d9",
        "value": "0x0",
        "input": "0x4af63f0200000000000000000000000000000000000000000000000000000000000000400000000000000000000000000000000000000000000000000000000000000000000000000000000000000000000000000000000000000000000000000000042d60c03461009157601f61040d38819003918201601f19168301916001600160401b038311848410176100955780849260209460405283398101031261009157516001600160a01b038116808203610091573060a052156100825760805260405161036390816100aa823960805181818160a5015261024e015260a0518160e60152f35b631df13ab560e01b5f5260045ffd5b5f80fd5b634e487b7160e01b5f52604160045260245ffdfe60806040526004361015610011575f80fd5b5f3560e01c806332fe7b261461009357634c4e814c1461002f575f80fd5b60c036600319011261008f5760a4356024356084356064356044356001600160401b03851161008f573660238601121561008f578460040135946001600160401b03861161008f57366024878301011161008f57602401936004356100d7565b5f80fd5b3461008f575f36600319011261008f577f00000000000000000000000000000000000000000000000000000000000000006001600160a01b03166080908152602090f35b95935050506001600160a01b037f000000000000000000000000000000000000000000000000000000000000000016301490506101de57600481106101cb57810160408282031261008f5781356001600160401b03811161008f5782019080601f8301121561008f5781359161014c83610227565b9161015a6040519384610201565b8383526020848301011161008f576001935f60208561018796828096018388013785010152013590610242565b917e79c93da2eeacd95680dbb2828e515dcb8f43209df2f6ed9bbf4840ffd2ac626101b1826102e8565b60408051938452602084018290529092a155602081519101f35b6312ba286f60e01b5f525f60045260245ffd5b6327844c6960e11b5f5260045ffd5b634e487b7160e01b5f52604160045260245ffd5b90601f801991011681019081106001600160401b0382111761022257604052565b6101ed565b6001600160401b03811161022257601f01601f191660200190565b80515f928392602001907f00000000000000000000000000000000000000000000000000000000000000005af13d156102e0573d9061028082610227565b9161028e6040519384610201565b82523d5f602084013e5b156102a05790565b6044602091604051928391630ef439b960e01b83528160048401528051918291826024860152018484015e5f828201840152601f01601f19168101030190fd5b606090610298565b60405160208101917f280d4be14fa09378750d86c933a0bbaa72f861b3ecaac50fb28add64cd1a66e28352604082015260408152610327606082610201565b5190209056fea2646970667358221220926642062546bd58784f8684af1780b6d574542c308eddf87e75f7bebdb32a4c64736f6c634300081e0033000000000000000000000000977c0d1bfb9071cb63c9c1ad92d916589ee3892800000000000000000000000000000000000000",
        "nonce": "0x33",
        "chainId": "0x2105"
      },
      "additionalContracts": [
        {
          "transactionType": "CREATE2",
          "address": "0x3e41bc3cba513492139bbe205652b831edf708b4",
          "initCode": "0x60c03461009157601f61040d38819003918201601f19168301916001600160401b038311848410176100955780849260209460405283398101031261009157516001600160a01b038116808203610091573060a052156100825760805260405161036390816100aa823960805181818160a5015261024e015260a0518160e60152f35b631df13ab560e01b5f5260045ffd5b5f80fd5b634e487b7160e01b5f52604160045260245ffdfe60806040526004361015610011575f80fd5b5f3560e01c806332fe7b261461009357634c4e814c1461002f575f80fd5b60c036600319011261008f5760a4356024356084356064356044356001600160401b03851161008f573660238601121561008f578460040135946001600160401b03861161008f57366024878301011161008f57602401936004356100d7565b5f80fd5b3461008f575f36600319011261008f577f00000000000000000000000000000000000000000000000000000000000000006001600160a01b03166080908152602090f35b95935050506001600160a01b037f000000000000000000000000000000000000000000000000000000000000000016301490506101de57600481106101cb57810160408282031261008f5781356001600160401b03811161008f5782019080601f8301121561008f5781359161014c83610227565b9161015a6040519384610201565b8383526020848301011161008f576001935f60208561018796828096018388013785010152013590610242565b917e79c93da2eeacd95680dbb2828e515dcb8f43209df2f6ed9bbf4840ffd2ac626101b1826102e8565b60408051938452602084018290529092a155602081519101f35b6312ba286f60e01b5f525f60045260245ffd5b6327844c6960e11b5f5260045ffd5b634e487b7160e01b5f52604160045260245ffd5b90601f801991011681019081106001600160401b0382111761022257604052565b6101ed565b6001600160401b03811161022257601f01601f191660200190565b80515f928392602001907f00000000000000000000000000000000000000000000000000000000000000005af13d156102e0573d9061028082610227565b9161028e6040519384610201565b82523d5f602084013e5b156102a05790565b6044602091604051928391630ef439b960e01b83528160048401528051918291826024860152018484015e5f828201840152601f01601f19168101030190fd5b606090610298565b60405160208101917f280d4be14fa09378750d86c933a0bbaa72f861b3ecaac50fb28add64cd1a66e28352604082015260408152610327606082610201565b5190209056fea2646970667358221220926642062546bd58784f8684af1780b6d574542c308eddf87e75f7bebdb32a4c64736f6c634300081e0033000000000000000000000000977c0d1bfb9071cb63c9c1ad92d916589ee38928"
        }
      ],
      "isFixedGasLimit": false
    }
  ],
  "receipts": [
    {
      "status": "0x1",
      "cumulativeGasUsed": "0x960558",
      "logs": [],
      "logsBloom": "0x00000000000000000000000000000000000000000000000000000000000000000000000000000000000000000000000000000000000000000000000000000000000000000000000000000000000000000000000000000000000000000000000000000000000000000000000000000000000000000000000000000000000000000000000000000000000000000000000000000000000000000000000000000000000000000000000000000000000000000000000000000000000000000000000000000000000000000000000000000000000000000000000000000000000000000000000000000000000000000000000000000000000000000000000000000000",
      "type": "0x2",
      "transactionHash": "0x7236f5e67166f748926e325daf9099bcb1979fa10984139bda2a391e33a6ca1c",
      "transactionIndex": "0x2b",
      "blockHash": "0xdd6a5a56c8c97108ec6d819de0f019590806e902ba5a19bc8e2afbf3abcfbb63",
      "blockNumber": "0x22ca675",
      "gasUsed": "0x3b960",
      "effectiveGasPrice": "0x608550",
      "from": "0xab41109fee8e1034c0f6a2c539ae1c869651f66b",
      "to": "0xce0042b868300000d44a59004da54a005ffdcf9f",
      "contractAddress": null,
      "l1BaseFeeScalar": "0x8dd",
      "l1BlobBaseFee": "0x1",
      "l1BlobBaseFeeScalar": "0x101c12",
      "l1Fee": "0xd8ec99b7",
      "l1GasPrice": "0x14947860",
      "l1GasUsed": "0x323f"
    }
  ],
  "libraries": [],
  "pending": [],
  "returns": {},
  "timestamp": 1759750605,
  "chain": 8453,
  "commit": "2033582"
}