{
  "transactions": [
    {
      "hash": "0x7bf394434acb309163aea0d627969d7e6b1aa0738e4c14051d3a83e15c1cc50e",
      "transactionType": "CALL",
      "contractName": null,
      "contractAddress": "0xce0042b868300000d44a59004da54a005ffdcf9f",
      "function": "deploy(bytes,bytes32)",
      "arguments": [
        "0x60c03461009157601f6103a538819003918201601f19168301916001600160401b038311848410176100955780849260209460405283398101031261009157516001600160a01b038116808203610091573060a05215610082576080526040516102fb90816100aa823960805181818160a5015261012e015260a0518160e60152f35b631df13ab560e01b5f5260045ffd5b5f80fd5b634e487b7160e01b5f52604160045260245ffdfe60806040526004361015610011575f80fd5b5f3560e01c806332fe7b261461009357634c4e814c1461002f575f80fd5b60c036600319011261008f5760a4356024356084356064356044356001600160401b03851161008f573660238601121561008f578460040135946001600160401b03861161008f57366024878301011161008f57602401936004356100d7565b5f80fd5b3461008f575f36600319011261008f577f00000000000000000000000000000000000000000000000000000000000000006001600160a01b03166080908152602090f35b95935050506001600160a01b037f0000000000000000000000000000000000000000000000000000000000000000163014905061021257600481106101ff575f9182914791816040519283928337810184815203917f00000000000000000000000000000000000000000000000000000000000000005af1903d156101f7573d916001600160401b0383116101f2576040519261017e601f8201601f191660200185610235565b83523d5f602085013e5b156101d357807e79c93da2eeacd95680dbb2828e515dcb8f43209df2f6ed9bbf4840ffd2ac626101b9600193610280565b60408051938452602084018290529092a155602081519101f35b604051630ef439b960e01b8152806101ee8460048301610256565b0390fd5b610221565b606091610188565b6312ba286f60e01b5f525f60045260245ffd5b6327844c6960e11b5f5260045ffd5b634e487b7160e01b5f52604160045260245ffd5b90601f801991011681019081106001600160401b038211176101f257604052565b602060409281835280519182918282860152018484015e5f828201840152601f01601f1916010190565b60405160208101917f280d4be14fa09378750d86c933a0bbaa72f861b3ecaac50fb28add64cd1a66e283526040820152604081526102bf606082610235565b5190209056fea26469706673582212202b611f655cdd78ed1181d1eadee634b41b0f2a9b99168255673e3568e282917f64736f6c634300081e0033000000000000000000000000977c0d1bfb9071cb63c9c1ad92d916589ee38928",
        "0x0000000000000000000000000000000000000000000000000000000000000000"
      ],
      "transaction": {
        "from": "0xab41109fee8e1034c0f6a2c539ae1c869651f66b",
        "to": "0xce0042b868300000d44a59004da54a005ffdcf9f",
        "gas": "0x4abb4",
        "value": "0x0",
        "input": "0x4af63f020000000000000000000000000000000000000000000000000000000000000040000000000000000000000000000000000000000000000000000000000000000000000000000000000000000000000000000000000000000000000000000003c560c03461009157601f6103a538819003918201601f19168301916001600160401b038311848410176100955780849260209460405283398101031261009157516001600160a01b038116808203610091573060a05215610082576080526040516102fb90816100aa823960805181818160a5015261012e015260a0518160e60152f35b631df13ab560e01b5f5260045ffd5b5f80fd5b634e487b7160e01b5f52604160045260245ffdfe60806040526004361015610011575f80fd5b5f3560e01c806332fe7b261461009357634c4e814c1461002f575f80fd5b60c036600319011261008f5760a4356024356084356064356044356001600160401b03851161008f573660238601121561008f578460040135946001600160401b03861161008f57366024878301011161008f57602401936004356100d7565b5f80fd5b3461008f575f36600319011261008f577f00000000000000000000000000000000000000000000000000000000000000006001600160a01b03166080908152602090f35b95935050506001600160a01b037f0000000000000000000000000000000000000000000000000000000000000000163014905061021257600481106101ff575f9182914791816040519283928337810184815203917f00000000000000000000000000000000000000000000000000000000000000005af1903d156101f7573d916001600160401b0383116101f2576040519261017e601f8201601f191660200185610235565b83523d5f602085013e5b156101d357807e79c93da2eeacd95680dbb2828e515dcb8f43209df2f6ed9bbf4840ffd2ac626101b9600193610280565b60408051938452602084018290529092a155602081519101f35b604051630ef439b960e01b8152806101ee8460048301610256565b0390fd5b610221565b606091610188565b6312ba286f60e01b5f525f60045260245ffd5b6327844c6960e11b5f5260045ffd5b634e487b7160e01b5f52604160045260245ffd5b90601f801991011681019081106001600160401b038211176101f257604052565b602060409281835280519182918282860152018484015e5f828201840152601f01601f1916010190565b60405160208101917f280d4be14fa09378750d86c933a0bbaa72f861b3ecaac50fb28add64cd1a66e283526040820152604081526102bf606082610235565b5190209056fea26469706673582212202b611f655cdd78ed1181d1eadee634b41b0f2a9b99168255673e3568e282917f64736f6c634300081e0033000000000000000000000000977c0d1bfb9071cb63c9c1ad92d916589ee38928000000000000000000000000000000000000000000000000000000",
        "nonce": "0x2f",
        "chainId": "0x2105"
      },
      "additionalContracts": [
        {
          "transactionType": "CREATE2",
          "address": "0xb595ae8de5bbf480a3d59a078516942ecc623e3a",
          "initCode": "0x60c03461009157601f6103a538819003918201601f19168301916001600160401b038311848410176100955780849260209460405283398101031261009157516001600160a01b038116808203610091573060a05215610082576080526040516102fb90816100aa823960805181818160a5015261012e015260a0518160e60152f35b631df13ab560e01b5f5260045ffd5b5f80fd5b634e487b7160e01b5f52604160045260245ffdfe60806040526004361015610011575f80fd5b5f3560e01c806332fe7b261461009357634c4e814c1461002f575f80fd5b60c036600319011261008f5760a4356024356084356064356044356001600160401b03851161008f573660238601121561008f578460040135946001600160401b03861161008f57366024878301011161008f57602401936004356100d7565b5f80fd5b3461008f575f36600319011261008f577f00000000000000000000000000000000000000000000000000000000000000006001600160a01b03166080908152602090f35b95935050506001600160a01b037f0000000000000000000000000000000000000000000000000000000000000000163014905061021257600481106101ff575f9182914791816040519283928337810184815203917f00000000000000000000000000000000000000000000000000000000000000005af1903d156101f7573d916001600160401b0383116101f2576040519261017e601f8201601f191660200185610235565b83523d5f602085013e5b156101d357807e79c93da2eeacd95680dbb2828e515dcb8f43209df2f6ed9bbf4840ffd2ac626101b9600193610280565b60408051938452602084018290529092a155602081519101f35b604051630ef439b960e01b8152806101ee8460048301610256565b0390fd5b610221565b606091610188565b6312ba286f60e01b5f525f60045260245ffd5b6327844c6960e11b5f5260045ffd5b634e487b7160e01b5f52604160045260245ffd5b90601f801991011681019081106001600160401b038211176101f257604052565b602060409281835280519182918282860152018484015e5f828201840152601f01601f1916010190565b60405160208101917f280d4be14fa09378750d86c933a0bbaa72f861b3ecaac50fb28add64cd1a66e283526040820152604081526102bf606082610235565b5190209056fea26469706673582212202b611f655cdd78ed1181d1eadee634b41b0f2a9b99168255673e3568e282917f64736f6c634300081e0033000000000000000000000000977c0d1bfb9071cb63c9c1ad92d916589ee38928"
        }
      ],
      "isFixedGasLimit": false
    }
  ],
  "receipts": [
    {
      "status": "0x1",
      "cumulativeGasUsed": "0x2cec516",
      "logs": [],
      "logsBloom": "0x00000000000000000000000000000000000000000000000000000000000000000000000000000000000000000000000000000000000000000000000000000000000000000000000000000000000000000000000000000000000000000000000000000000000000000000000000000000000000000000000000000000000000000000000000000000000000000000000000000000000000000000000000000000000000000000000000000000000000000000000000000000000000000000000000000000000000000000000000000000000000000000000000000000000000000000000000000000000000000000000000000000000000000000000000000000",
      "type": "0x2",
      "transactionHash": "0x7bf394434acb309163aea0d627969d7e6b1aa0738e4c14051d3a83e15c1cc50e",
      "transactionIndex": "0x109",
      "blockHash": "0x5a1ea1cfdba4f594d5ff56bd01e6f99fd11e59255d4390e3f2fa6db0ad057d3b",
      "blockNumber": "0x22c9f44",
      "gasUsed": "0x361ac",
      "effectiveGasPrice": "0x82a594",
      "from": "0xab41109fee8e1034c0f6a2c539ae1c869651f66b",
      "to": "0xce0042b868300000d44a59004da54a005ffdcf9f",
      "contractAddress": null,
      "l1BaseFeeScalar": "0x8dd",
      "l1BlobBaseFee": "0x2",
      "l1BlobBaseFeeScalar": "0x101c12",
      "l1Fee": "0x195c058a",
      "l1GasPrice": "0x6fc3cdf",
      "l1GasUsed": "0x2ebe"
    }
  ],
  "libraries": [],
  "pending": [],
  "returns": {},
  "timestamp": 1759746922,
  "chain": 8453,
  "commit": "832ab5d"
}