{
  "transactions": [
    {
      "hash": "0x89a0030a3a83bb14fec3f1e4c81c5f58ea186e980aef7f98686f91341685ff87",
      "transactionType": "CALL",
      "contractName": null,
      "contractAddress": "0xce0042b868300000d44a59004da54a005ffdcf9f",
      "function": "deploy(bytes,bytes32)",
      "arguments": [
        "0x60c03461009157601f6103c638819003918201601f19168301916001600160401b038311848410176100955780849260209460405283398101031261009157516001600160a01b038116808203610091573060a052156100825760805260405161031c90816100aa823960805181818160aa0152610207015260a0518160eb0152f35b631df13ab560e01b5f5260045ffd5b5f80fd5b634e487b7160e01b5f52604160045260245ffdfe60806040526004361015610011575f80fd5b5f3560e01c806332fe7b261461009857634c4e814c1461002f575f80fd5b346100945760c03660031901126100945760a4356024356084356064356044356001600160401b0385116100945736602386011215610094578460040135946001600160401b03861161009457366024878301011161009457602401936004356100dc565b5f80fd5b34610094575f366003190112610094577f00000000000000000000000000000000000000000000000000000000000000006001600160a01b03166080908152602090f35b95935050506001600160a01b037f00000000000000000000000000000000000000000000000000000000000000001630149050610197578101906040818303126100945780356001600160401b0381116100945781019180601f840112156100945782359061014a826101e0565b9061015860405192836101ba565b8282526020838601011161009457602061018e935f8285610188968260019a0183880137850101520135906101fb565b926102a1565b55602081519101f35b6327844c6960e11b5f5260045ffd5b634e487b7160e01b5f52604160045260245ffd5b90601f801991011681019081106001600160401b038211176101db57604052565b6101a6565b6001600160401b0381116101db57601f01601f191660200190565b80515f928392602001907f00000000000000000000000000000000000000000000000000000000000000005af13d15610299573d90610239826101e0565b9161024760405193846101ba565b82523d5f602084013e5b156102595790565b6044602091604051928391630ef439b960e01b83528160048401528051918291826024860152018484015e5f828201840152601f01601f19168101030190fd5b606090610251565b60405160208101917f280d4be14fa09378750d86c933a0bbaa72f861b3ecaac50fb28add64cd1a66e283526040820152604081526102e06060826101ba565b5190209056fea2646970667358221220c38b9beff2532c48601ff3de9bd9d47607c8646a43b558cd1c651b9c14e011ee64736f6c634300081e0033000000000000000000000000c428ebe276bb72c00524e6fbb5280b0fab009973",
        "0x0000000000000000000000000000000000000000000000000000000000000000"
      ],
      "transaction": {
        "from": "0xab41109fee8e1034c0f6a2c539ae1c869651f66b",
        "to": "0xce0042b868300000d44a59004da54a005ffdcf9f",
        "gas": "0x4d1de",
        "value": "0x0",
        "input": "0x4af63f020000000000000000000000000000000000000000000000000000000000000040000000000000000000000000000000000000000000000000000000000000000000000000000000000000000000000000000000000000000000000000000003e660c03461009157601f6103c638819003918201601f19168301916001600160401b038311848410176100955780849260209460405283398101031261009157516001600160a01b038116808203610091573060a052156100825760805260405161031c90816100aa823960805181818160aa0152610207015260a0518160eb0152f35b631df13ab560e01b5f5260045ffd5b5f80fd5b634e487b7160e01b5f52604160045260245ffdfe60806040526004361015610011575f80fd5b5f3560e01c806332fe7b261461009857634c4e814c1461002f575f80fd5b346100945760c03660031901126100945760a4356024356084356064356044356001600160401b0385116100945736602386011215610094578460040135946001600160401b03861161009457366024878301011161009457602401936004356100dc565b5f80fd5b34610094575f366003190112610094577f00000000000000000000000000000000000000000000000000000000000000006001600160a01b03166080908152602090f35b95935050506001600160a01b037f00000000000000000000000000000000000000000000000000000000000000001630149050610197578101906040818303126100945780356001600160401b0381116100945781019180601f840112156100945782359061014a826101e0565b9061015860405192836101ba565b8282526020838601011161009457602061018e935f8285610188968260019a0183880137850101520135906101fb565b926102a1565b55602081519101f35b6327844c6960e11b5f5260045ffd5b634e487b7160e01b5f52604160045260245ffd5b90601f801991011681019081106001600160401b038211176101db57604052565b6101a6565b6001600160401b0381116101db57601f01601f191660200190565b80515f928392602001907f00000000000000000000000000000000000000000000000000000000000000005af13d15610299573d90610239826101e0565b9161024760405193846101ba565b82523d5f602084013e5b156102595790565b6044602091604051928391630ef439b960e01b83528160048401528051918291826024860152018484015e5f828201840152601f01601f19168101030190fd5b606090610251565b60405160208101917f280d4be14fa09378750d86c933a0bbaa72f861b3ecaac50fb28add64cd1a66e283526040820152604081526102e06060826101ba565b5190209056fea2646970667358221220c38b9beff2532c48601ff3de9bd9d47607c8646a43b558cd1c651b9c14e011ee64736f6c634300081e0033000000000000000000000000c428ebe276bb72c00524e6fbb5280b0fab0099730000000000000000000000000000000000000000000000000000",
        "nonce": "0x18",
        "chainId": "0xa"
      },
      "additionalContracts": [
        {
          "transactionType": "CREATE2",
          "address": "0x393b5b2bbe9b43f5cefa5319adbd46d7a6f97b40",
          "initCode": "0x60c03461009157601f6103c638819003918201601f19168301916001600160401b038311848410176100955780849260209460405283398101031261009157516001600160a01b038116808203610091573060a052156100825760805260405161031c90816100aa823960805181818160aa0152610207015260a0518160eb0152f35b631df13ab560e01b5f5260045ffd5b5f80fd5b634e487b7160e01b5f52604160045260245ffdfe60806040526004361015610011575f80fd5b5f3560e01c806332fe7b261461009857634c4e814c1461002f575f80fd5b346100945760c03660031901126100945760a4356024356084356064356044356001600160401b0385116100945736602386011215610094578460040135946001600160401b03861161009457366024878301011161009457602401936004356100dc565b5f80fd5b34610094575f366003190112610094577f00000000000000000000000000000000000000000000000000000000000000006001600160a01b03166080908152602090f35b95935050506001600160a01b037f00000000000000000000000000000000000000000000000000000000000000001630149050610197578101906040818303126100945780356001600160401b0381116100945781019180601f840112156100945782359061014a826101e0565b9061015860405192836101ba565b8282526020838601011161009457602061018e935f8285610188968260019a0183880137850101520135906101fb565b926102a1565b55602081519101f35b6327844c6960e11b5f5260045ffd5b634e487b7160e01b5f52604160045260245ffd5b90601f801991011681019081106001600160401b038211176101db57604052565b6101a6565b6001600160401b0381116101db57601f01601f191660200190565b80515f928392602001907f00000000000000000000000000000000000000000000000000000000000000005af13d15610299573d90610239826101e0565b9161024760405193846101ba565b82523d5f602084013e5b156102595790565b6044602091604051928391630ef439b960e01b83528160048401528051918291826024860152018484015e5f828201840152601f01601f19168101030190fd5b606090610251565b60405160208101917f280d4be14fa09378750d86c933a0bbaa72f861b3ecaac50fb28add64cd1a66e283526040820152604081526102e06060826101ba565b5190209056fea2646970667358221220c38b9beff2532c48601ff3de9bd9d47607c8646a43b558cd1c651b9c14e011ee64736f6c634300081e0033000000000000000000000000c428ebe276bb72c00524e6fbb5280b0fab009973"
        }
      ],
      "isFixedGasLimit": false
    }
  ],
  "receipts": [
    {
      "status": "0x1",
      "cumulativeGasUsed": "0xa30a50",
      "logs": [],
      "logsBloom": "0x00000000000000000000000000000000000000000000000000000000000000000000000000000000000000000000000000000000000000000000000000000000000000000000000000000000000000000000000000000000000000000000000000000000000000000000000000000000000000000000000000000000000000000000000000000000000000000000000000000000000000000000000000000000000000000000000000000000000000000000000000000000000000000000000000000000000000000000000000000000000000000000000000000000000000000000000000000000000000000000000000000000000000000000000000000000",
      "type": "0x2",
      "transactionHash": "0x89a0030a3a83bb14fec3f1e4c81c5f58ea186e980aef7f98686f91341685ff87",
      "transactionIndex": "0x24",
      "blockHash": "0x0342771c8618ee0c224ddbb0ff799e9e668ffa7a2f06ed1b5fbdbdcfa21a29b0",
      "blockNumber": "0x87924ff",
      "gasUsed": "0x37d4d",
      "effectiveGasPrice": "0x29f",
      "from": "0xab41109fee8e1034c0f6a2c539ae1c869651f66b",
      "to": "0xce0042b868300000d44a59004da54a005ffdcf9f",
      "contractAddress": null,
      "l1BaseFeeScalar": "0x146b",
      "l1BlobBaseFee": "0x1",
      "l1BlobBaseFeeScalar": "0xf79c5",
      "l1Fee": "0x30ad8e939",
      "l1GasPrice": "0xc7aceee",
      "l1GasUsed": "0x2ea3",
      "operatorFeeConstant": "0x0",
      "operatorFeeScalar": "0x0"
    }
  ],
  "libraries": [],
  "pending": [],
  "returns": {},
  "timestamp": 1759912888816,
  "chain": 10,
  "commit": "e109d40"
}